:020000040800F2
:10000000380600200D020008172300082D200008E4
:100010001523000811050008FD2800080000000055
:100020000000000000000000000000001B2300088A
:10003000C505000800000000192300081D23000862
:1000400027020008270200082702000827020008EC
:1000500027020008270200082702000827020008DC
:1000600027020008270200082702000827020008CC
:1000700027020008270200082702000827020008BC
:1000800027020008270200082702000827020008AC
:10009000270200082702000827020008270200089C
:1000A000270200082702000827020008270200088C
:1000B000270200082702000827020008270200087C
:1000C000270200082702000827020008270200086C
:1000D000270200082702000827020008270200085C
:1000E000270200082702000827020008270200084C
:1000F000270200082702000827020008270200083C
:10010000270200082702000827020008270200082B
:100110002702000827020008F92300080524000828
:10012000150500082702000827020008270200081A
:1001300027020008270200082702000827020008FB
:1001400027020008270200082702000827020008EB
:1001500027020008270200082702000827020008DB
:1001600027020008270200082702000827020008CB
:1001700027020008270200082702000800000000EC
:1001800027020008270200082702000827020008AB
:10019000270200082702000827020008270200089B
:1001A000270200082702000827020008270200088B
:1001B000270200082702000827020008270200087B
:1001C000270200082702000800000000270200089C
:1001D000270200082702000827020008270200085B
:1001E000270200082702000827020008270200084B
:1001F0002702000827020008DFF80CD000F092F870
:1002000000480047D53300083806002006488047DC
:1002100006480047FEE7FEE7FEE7FEE7FEE7FEE7EB
:10022000FEE7FEE7FEE7FEE7DD230008F901000830
:100230002DE9F05F0546002092469B46884606461B
:10024000814640241BE0284641464746224600F0AE
:1002500041F853465A46C01A914110D311461846E8
:10026000224600F028F82D1A67EB01084F46224677
:100270000120002100F01FF817EB00094E41201E5D
:10028000A4F10104DFDC484631462A464346BDE876
:10029000F09FD2B201E000F8012B491EFBD270475B
:1002A0000022F6E710B513460A4604461946FFF742
:1002B000F0FF204610BD202A04DB203A00FA02F1AC
:1002C000002070479140C2F1200320FA03F3194344
:1002D00090407047202A04DB203A21FA02F00021E6
:1002E000704721FA02F3D040C2F120029140084346
:1002F0001946704770B521F0004303430CD0C1F399
:100300000A550024D5EB040564EB0403D617AD1A97
:10031000B34102DB0020014670BD201841EB0251C1
:1003200070BD0000064C074D06E0E06840F0010398
:1003300094E8070098471034AC42F6D3FFF760FF0B
:10034000B8350008D835000810B50146806B026C3E
:1003500012F0500F05D0026CD20626D500F00CFA30
:1003600010BD016C41F40071016401688A6812F0EB
:10037000405F17D18269AAB9CA6A12F4700F02D01D
:100380008A6852050ED44A6822F020024A60016C45
:1003900021F480710164016CC90403D4016C41F043
:1003A0000101016400F0E6F910BD806BC26C0846E3
:1003B000BDE81040104710B5806B40210164416CCE
:1003C00041F00401416400F0D7F910BD10B5806B15
:1003D00000F0D1F910BD00004A496FF0706210B50D
:1003E000D1F8043323F44033C1F80433D1F8043393
:1003F00044682343C1F8043301684B6823F48073D5
:100400004B60016803694C6844EA03234B60016850
:100410004B6823F040734B60016884684B6823434A
:100420004B6001688B6823F400638B600168C468CB
:100430008B6823438B60816AD14201688A6822F00D
:1004400070628A6001680DD0836A8A681A438A6084
:1004500001688A6822F040528A600168C36A8A682B
:100460001A4302E08A6822F040528A6001688A6872
:1004700022F002028A60016882698B6843EA4202C4
:100480008A6090F820100029016811D01E4A4B683C
:1004900043F400634B6001684B6823F460434B6096
:1004A0000168446A4B6802EB443213434B6003E03B
:1004B0004A6822F400624A600168144BCA6A22F456
:1004C0007002CA620168848BCA6A03EB04531A4340
:1004D000CA6201688A6822F400728A60016890F832
:1004E00030208B6843EA42228A6001688A6822F4DD
:1004F00080628A60016840698A6842EA8020886078
:1005000010BD00000020014000E0FFFF0000F0FFF0
:10051000FEE70000014800F039BA0000D8010020D1
:1005200001681823CAB2103AB2FBF3F2054B6FF31D
:100530000901032A9B5CC36500D9091D8165084632
:10054000704700000435000810B583694FF0C0748F
:10055000826A0146002053B1B3F5005F15D072B135
:10056000012A0CD0022A0AD0032A09D104E01AB1C8
:10057000012A06D0022A03D1C96AC90100D5012087
:1005800010BDC96AA142FAD010BD002AF7D0012AD5
:10059000F2D0022AF3D0032AF3D010BD30B504689C
:1005A000256825F480252560046863608368402BF6
:1005B000036803D099600068C26030BD9A6000682B
:1005C000C16030BD704772B6FEE70000F8B5002587
:1005D000009590F83C20012A1DD0012280F83C2093
:1005E000604C0723D6070A68092A22D9B24220D0D4
:1005F00007680A3A02EB420CFA6803FA0CF39A43D2
:10060000FA600A68A24208D102680B7AD76847EA02
:100610000363D36022E00220F8BD07680A3A8B68C2
:1006200002EB4202D7F80CC0934043EA0C03FB6094
:1006300014E0076802EB4202D7F810C093402CEA9E
:10064000030CC7F810C003680F788A68D3F810C08D
:1006500007EB4707BA4042EA0C021A614A681F23B7
:10066000072A16D20768521E02EB820C7A6B03FA35
:100670000CF39A437A6302680F790B887F1ED2F8D5
:1006800034C09BB207EB8707BB4043EA0C035363BC
:100690002DE007680D2A15D2D21F02EB820C3A6BAF
:1006A00003FA0CF39A433A6302680F790B88FF1F31
:1006B000D2F830C09BB207EB8707BB4043EA0C037C
:1006C000136314E00D3A02EB820CFA6A03FA0CF39E
:1006D0009A43FA6202680F790B880D3FD2F82CC05A
:1006E0009BB207EB8707BB4043EA0C03D3621E4A69
:1006F0000368934208D10B68B34205D1D2F80433A2
:1007000023F44003C2F804330368934208D10B6812
:10071000122B05D1D2F8043343F48003C2F804331A
:10072000036893421AD10B68A34201D0112B15D153
:10073000D2F8043343F40003C2F804330968A14239
:100740000CD10A490A4A0968B1FBF2F101EB8101B7
:10075000490000E0491E00910029FBD180F83C507F
:100760000020F8BD120000100020014028000020E9
:1007700040420F0070477047704770B504004FF05B
:10078000000503D0206C002610B107E0012070BDE9
:10079000204600F01DF8666484F83C60206CC006BA
:1007A00010D4206C20F4885040F0020020642046D1
:1007B000FFF712FE6664206C20F0020040F001009A
:1007C000206400E0012584F83C60284670BD0000EC
:1007D000F0B587B0064614216846FFF761FD1E4953
:1007E0003068884235D11D48016841F4806101605C
:1007F000006800F48060059018481438016841F0E2
:100800002001016000680025032100F02000059010
:100810004FF4F9608DE823001148694600F036FA7C
:1008200011484FF4807C0F4C8105021584E82300A9
:100830000F13C4E9035283142046C4E907C5656257
:10084000C4E9053700F072F908B1FFF7BCFEB463E4
:10085000A66307B0F0BD000000220140443802400A
:1008600000140240D801002010640240F8B50D4683
:1008700004460021009190F83C00012807D0012097
:1008800084F83C0020688368DB0702D011E0022076
:10089000F8BD8668364B46F001068660354800682C
:1008A000B0FBF3F000EB400000E0401E0090002899
:1008B000FBD120688368DB0758D0236C40F20166C7
:1008C000B34343F4807323644068400505D5206C2E
:1008D00020F4005040F480502064206CC00404D503
:1008E000606C20F00600606400E061646FF022003C
:1008F00084F83C10A36B2049D963A36B1F4919648A
:10090000A36B1F49D964216808602068416841F0E1
:10091000806141602068816841F480718160216854
:100920001346A06B2A464C3100F072F91549D1F8F4
:100930000403C006206811D0884207D1826812F0F3
:10094000405F03D1826842F080428260D1F80403A4
:10095000C0060BD40C492068884207D1816811F089
:10096000405F03D1816841F0804181600020F8BD83
:1009700040420F002800002049030008CD03000872
:10098000B703000800200140002201402DE9F84390
:1009900004464FF00009644B0820CDF800904FF456
:1009A0001652A56D94F85C101B682E68B3FBF2F725
:1009B00000FA01F131420FD021680A6852070BD5C5
:1009C0000A6822F004020A6094F85C108840A8606B
:1009D000606D40F00100606594F85C104FF0010814
:1009E00008FA01F0304208D021684969090604D5A7
:1009F000A860606D40F00200606594F85C1004200F
:100A00008840304208D021680968890704D5A86069
:100A1000606D40F00400606594F85C101020884020
:100A2000304218D021680968090714D5A8602068E9
:100A30000168490304D50068000308D5A16C07E0EC
:100A40000168C90503D4016821F008010160216C27
:100A500009B12046884794F85C1020208840304235
:100A600031D021680968C9062DD5A86094F83500F1
:100A700005282068016806D0490347D500680003AF
:100A80001DD4616C1CE021F01601016020684169F1
:100A900021F080014161206C08B9A06C20B1206870
:100AA000016821F00801016094F85C303F229A400F
:100AB000AA6084F8349084F83580216D1FE0E16BE2
:100AC00009B120468847606D00282BD0606DC007B3
:100AD00014D0052084F835002068016821F0010158
:100AE00001600098401C0090B84203D8206800685C
:100AF000C007F6D184F8349084F83580E16C002981
:100B000010D001B02046BDE8F04308470168C90590
:100B1000D5D4036823F01003036084F8349084F87C
:100B20003580CCE7BDE8F883280000202DE9F047A8
:100B3000044600F0A3F9054664B14FF0000984F8BB
:100B40003490022184F835102068016821F00101F9
:100B500001600EE00120BDE8F08700BF00F08EF9D3
:100B6000401B052805D920216165032084F8350044
:100B7000F1E720680068C007F0D1D4E90020D4E98B
:100B80000251D4E9043C284304F1180519430843F1
:100B9000116895E8E00140EA0C001C4B284319401D
:100BA00040EA060040EA0700B8F1040F40EA0100FD
:100BB00003D1D4E90B1319430843106020680126C0
:100BC000656A4069042D20F0070045EA00050CD154
:100BD000D4E90A01054341B12046FFF7B5FC20B135
:100BE0004020606584F83560B4E7206845612046A0
:100BF000FFF796FC94F85C303F229A408260C4F87C
:100C0000549084F835600020A5E700003F8010E094
:100C10002DE9F041044690F8340000250128A66D26
:100C20000ED094F835C00127002084F83470BCF150
:100C3000010F07D0022584F834002846BDE8F08172
:100C40000220FBE7022784F8357060652046FFF735
:100C5000A5FC94F85C103F208840B06020680168D3
:100C600041F0160101602068416941F08001416155
:100C7000206C20B12068016841F008010160206803
:100C8000016841F001010160D7E700002DE9F84F4C
:100C900000224FF001094FF0030A4FF00F0E00BF82
:100CA0000B6809FA02F42340A34270D14D68012D6C
:100CB00005D0022D03D0112D01D0122D11D1856840
:100CC0005700CE680AFA07FC25EA0C05BE402E4301
:100CD000866045680E79A543C6F3001696402E43FC
:100CE0004660C56856008F680AFA06F4A543B74007
:100CF0002F43C7604D68022D01D0122D12D1D508A7
:100D00000F694FEA427C00EB8505AB462D6A4FEA3E
:100D1000DC6C0EFA0CF807FA0CF725EA08052F43ED
:100D2000CBF820700D79076805F00305A743B5409F
:100D30003D4305604C68E40074D53D4C256845F49E
:100D400080452560246822F00307960704F4804458
:100D50000094384C360F2744D7F80848DFF8D8C03D
:100D60000EFA06F5604524EA050401D100252EE0BF
:100D7000324DA84201D1012529E0314DA84201D1CF
:100D8000022524E02F4DA84202D103251FE049E0AF
:100D90002D4DA84201D1042519E02C4DA84201D1C6
:100DA000052514E02A4DA84201D106250FE0294D62
:100DB000A84201D107250AE0274DA84201D1082504
:100DC00005E0264DA84201D1092500E00A25B540DD
:100DD000234E2543C7F808584D683468ED0324EACC
:100DE000030400D51C431E4D34602D1D4E682C6835
:100DF000B60324EA030400D51C43194E2C600836C0
:100E00004D683468ED0224EA030400D51C43144DF8
:100E100034600C354E682C68B60224EA030400D511
:100E20001C432C60521C102AFFF43AAFBDE8F88F27
:100E300044380240003001400000024000040240FB
:100E400000080240000C0240001002400014024062
:100E500000180240001C0240002002400024024012
:100E6000003C014042690A4200D009048161704798
:100E70000AB1816170470904FBE7000001488068FE
:100E8000704700001C00002002488168027811446D
:100E9000816070471C000020032010B500F06EF840
:100EA000002000F005F800F023F8002010BD00003D
:100EB00070B50D4D04464FF47A700C4A29781268CB
:100EC000B0FBF1F0B2FBF0F000F0C4FD48B9102C1B
:100ED00007D200222146501E00F030F800206C603E
:100EE00070BD012070BD00001C0000202800002003
:100EF0000A4808B5016841F080510160006800F0BF
:100F0000805000900548001D016841F48041016057
:100F1000006800F48040009008BD000040380240A6
:100F2000002809DB410900F01F028900012001F1BE
:100F3000E0219040C1F80001704700000E4BF0B472
:100F40001B680D46C3F30223C3F10706042E00D924
:100F50000426191D072901D2002300E0DB1E01240D
:100F600004FA06F19C40491E2940641E9940144031
:100F70002143F0BC01F0DBBC0CED00E0064900F0C1
:100F8000070210B54FF6FF040868044B204040EA02
:100F900002201843086010BD0CED00E00000FA05C7
:100FA0000248016841F480710160704700700040A0
:100FB0002DE9F84F04460078DFF824944FF000063E
:100FC0003746C0070ED0D9F8001021F40001C9F847
:100FD0000010D9F80010626B1143C9F80010606B63
:100FE00000B90126FE4D2068843500030ED5E16B63
:100FF000286820F4401008432860E06BB0F5801F9B
:1010000001D010B102E0012600E0012720684FF472
:10101000800BC0020CD5216C286820F440000843E6
:101020002860206C584501D1012601E000B9012754
:101030002068C10100D50126800666D5E848383011
:10104000016841F0805101600068DFF898A300F06A
:1010500080500090DAF8001041F48071CAF8001056
:10106000FFF70CFF804605E0FFF708FFA0EB080044
:1010700064287DD8DAF80000C005F5D5DFF8608374
:1010800008F16808D8F8000010F440702AD0218ECA
:1010900001F44071814225D0D8F80010D8F8002022
:1010A00021F4407142F48032C8F80020D8F80020C2
:1010B00022F48032C8F80020C8F80010D8F80000E8
:1010C000C0070FD0FFF7DAFE824607E0FFF7D6FE33
:1010D000A0EB0A0141F288308142CAD8D8F800005A
:1010E0008007F3D5206BC0F3012103297ED0D9F806
:1010F000001021F4F811C9F80010228ED8F8001061
:10110000C2F30B021143C8F800102078C00607D5BF
:10111000286820F0807028602868A16B0843286048
:101120002188AF488830490405D5626E016821F4F2
:101130004031114301602188090405D5A26E016880
:1011400021F44021114301602168C90305D5E26EF5
:10115000016821F44011114301602168890305D51C
:10116000226F016821F4400111430160217800E001
:1011700034E1490605D5626C016821F00301114391
:1011800001602178090605D5A26C016821F00C01E7
:10119000114301602188C90505D5E26C016821F081
:1011A0003001114301602188890505D5226D016850
:1011B00021F0C001114301602188490505D5626D08
:1011C000016821F44071114301602188090505D5AA
:1011D000A26D016821F44061114301602188C904B6
:1011E00007D5E26D016821F4405100E05FE0114352
:1011F00001602188890405D5226E016821F44041EF
:10120000114301602168490205D5A26F016821F0F0
:1012100080611143016021684FF0006A890209D59D
:10122000E26F016821F0006111430160E16F5145F7
:1012300000D1012721680A0700D50127490305D5F8
:10124000626F016821F04071114301602168090259
:1012500006D5D4F88020016821F080511143016047
:101260002168490106D5D4F88420016821F0005195
:10127000114301602068000106D5D4F88810286861
:1012800020F00070084328602068C00006D5D4F81C
:101290008C10286820F0806008432860DFF84891AF
:1012A000012E0ED02068B0F1007F0AD08FE04F4AA7
:1012B000D9F80030104023F4F8120243C9F8002096
:1012C0001BE7D9F800004E4620F08060C9F8000006
:1012D000FFF7D4FD804605E0FFF7D0FDA0EB080046
:1012E00064287BD830680001F6D421783C487C30F3
:1012F000C90712D0616B81B9237A62680168D0F89E
:1013000000C09201C1F3014142EA0142CCF3036102
:1013100042EA016141EA0371016021680A0303D5D1
:10132000E26BB2F5801F04D0C9021AD5216C594571
:1013300017D16368016894F80CC002689B01C1F37F
:10134000014143EA0141C2F3027241EA0C6141EA00
:10135000027101602968626A21F01F01521E114367
:1013600029602168C90110D5238A62680168D0F814
:1013700000C09201C1F3036142EA034242EA016202
:10138000CCF3027142EA01710160216889010CD538
:101390006168228A237B94F808C0890141EA0241EE
:1013A00041EA036141EA0C7101603168B04641F0E5
:1013B00080613160FFF762FD064604E0FFF75EFDE5
:1013C000801B64280AD8D8F800000001F6D5E7B3DE
:1013D000D9F800004E4620F0805009E07BE0000084
:1013E000083802400070004000380240FFFCFF0F48
:1013F000C9F80000FFF742FD074604E0FFF73EFD95
:10140000C01B642867D83068C0438000F6D52168C7
:1014100035480A0301D5E26B1AB1C9021DD5216C0A
:10142000D9B963690168277E02689B01C1F3014154
:1014300043EA0143C2F3027143EA076242EA0171DF
:10144000016029686FF0FF0300E04BE0A26A21F41D
:10145000F85103EB0222114329602168890212D559
:10146000E16F51450FD1238C6269016807689201D1
:10147000C1F3036142EA034242EA0162C7F3027127
:1014800042EA017101602178090716D56169026895
:10149000D0F800C08B01277FC2F30362CCF3014177
:1014A00043EA014141EA026141EA077101602868AB
:1014B000E16A20F4403008432860306840F08050F2
:1014C0003060FFF7DBFC044608E000BFFFF7D6FC06
:1014D000001B642802D90320BDE8F88F3068C043A0
:1014E0008000F3D40020F7E7883802402DE9F04768
:1014F00005000F4663D0444E306800F00F00B8423C
:1015000009D2306820F00F0038433060306800F0B6
:101510000F00B84253D128683C4C810712D54007D0
:1015200003D5206840F4E05020602878000703D5F8
:10153000206840F460402060A968206820F0F00036
:10154000084320602878C0072AD0304968680839E5
:10155000012810D00968022810D0890700292EDA46
:10156000216821F0030101432160FFF787FC8046D9
:1015700041F288390DE009688903EFE78901EDE759
:10158000FFF77CFCA0EB0801494502D90320BDE828
:10159000F0876868216801F00C01B1EB800FEFD192
:1015A000306800F00F00B8420BD9306820F00F000F
:1015B00038433060306800F00F00B84201D001209D
:1015C000E5E72878400705D5E968206820F4E05071
:1015D000084320602878000706D52869216821F48F
:1015E000604141EAC000206000F038F82168084AF4
:1015F000C1F30311515CC840064908600648006801
:10160000FFF756FC0020C2E7003C024008380240C9
:101610000C3500082800002020000020044905485F
:1016200009680068044AC1F38221515CC8407047D0
:1016300008380240280000201C35000804490548ED
:1016400009680068044AC1F34231515CC8407047E0
:1016500008380240280000201C350008154910B544
:101660001548096811F00C0213D04110042A0FD05C
:10167000082A0ED10F4C241F2268236802F03F0273
:101680005B0207D52068C0F38810A0FB010106E0CB
:10169000084610BD2168C1F38811A1FB0001002399
:1016A000FEF7C6FD2168C1F30141491C4900B0FBAA
:1016B000F1F010BD083802400024F4002DE9F84F85
:1016C00004004FF000076ED02078DFF87CA3AAF169
:1016D0000408C007A8F104054CD0DAF80010504601
:1016E000C1F38101012908D00068C0F381000228FC
:1016F0000AD1D8F80000400206D52868800339D501
:1017000060680028DFD035E06068B0F5803F0BD01E
:1017100010B1B0F5A02F11D0286820F480302860D7
:10172000286820F4802002E0286840F48030286097
:10173000606890B1FFF7A2FB06460AE0286840F413
:1017400080202860F0E700BFFFF798FB801B64282B
:1017500072D828688003F7D50CE0FFF78FFB0646A8
:1017600005E000BFFFF78AFB801B6428F0D82868DB
:101770008003F7D42078800742D5DAF8001050466D
:1017800011F00C0F08D00068C0F3810002280BD1C3
:10179000D8F80000400207D42868800718D5E06810
:1017A000012800D114E04AE1E0680028286817D039
:1017B00040F001002860FFF761FB064605E000BF2E
:1017C000FFF75CFB801B0228C2D828688007F7D58A
:1017D0002069296821F0F80141EAC00028600FE083
:1017E00020F001002860FFF749FB064605E000BF36
:1017F000FFF744FB801B02281ED828688007F7D417
:101800002078000729D5904861696C30002981460D
:10181000016812D041F001010160FFF72FFB06467D
:1018200005E000BFFFF72AFB801B022804D8D9F887
:1018300000008007F6D510E089E021F00101016089
:10184000FFF71CFB064604E0FFF718FB801B02288D
:101850007DD8D9F800008007F6D4207840076BD5F2
:10186000DFF8E49109F13809D9F80000C0000BD481
:10187000D9F8001041F08051C9F80010D9F80000E3
:10188000012700F08050009070480168C90512D40B
:101890000168834641F480710160FFF7EFFA064664
:1018A00005E000BFFFF7EAFA801B64284FD8DBF899
:1018B0000000C005F6D5644EA068683601280AD03D
:1018C00008B1052811D0306820F001003060306880
:1018D00020F0040002E0306840F001003060A068B1
:1018E000A0B1FFF7CBFA83460CE0306840F004006B
:1018F0003060F0E7FFF7C2FAA0EB0B0141F288304D
:10190000814268D830688007F4D50EE0FFF7B6FA58
:10191000834607E0FFF7B2FAA0EB0B0141F28830F3
:10192000814258D830688007F4D42FB1D9F800101C
:1019300021F08051C9F80010A069E0B3DAF8001076
:10194000C1F3810102294DD00228286800E042E05D
:1019500020F08070286003D0FFF790FA04463DE045
:10196000FFF78CFA064604E0FFF788FA801B02288E
:1019700031D828688001F7D4D4E90921DFF8D0C034
:10198000D4E9070694F830304F0894F82C1030430F
:101990000CEB074444EA8212104340EA016040EA3B
:1019A0000370C8F80000286840F080702860FFF7D6
:1019B00065FA044605E044E0FFF760FA001B0228E0
:1019C00009D828688001F7D53BE000BFFFF756FA39
:1019D000001B022802D90320BDE8F88F2868800187
:1019E000F4D42EE00128D8F8000028D0E16900F4F2
:1019F00080028A4223D1216A00F03F028A421ED12E
:101A0000626A47F6C0710140B1EB821F17D1A16A2B
:101A10004FF0FF3200F4403302EB5101B3EB014FC2
:101A20000DD194F82C1000F07062B2EB016F06D16A
:101A300094F8301000F0E040B0EB017F01D00120BD
:101A4000CAE70020C8E700000838024000700040E4
:101A50000000FFFF401EB0F1807F10B501D30120D0
:101A600010BD4FF0E02460610F21601700F05FFFB0
:101A70000020A0610721216110BD704770477047A9
:101A8000F0B590F83C20012A3BD01F4E012480F88D
:101A90003C40022280F83D2002681C4D5368B2424F
:101AA000D2F808C001D0AA4203D14F6823F47003D2
:101AB0003B430F6823F070031F4357600268B24234
:101AC00013D0B2F1804F10D0114B9A420DD0114B70
:101AD0009A420AD0104B9A4207D0AA4205D00F4B27
:101AE0009A4202D00E4B9A4204D189682CF08003AE
:101AF00019439160002180F83D4080F83C10084671
:101B0000F0BD0220F0BD00000000014000040140D3
:101B10000004004000080040000C0040004001406C
:101B20000018004010B5040003D094F83D0010B137
:101B300007E0012010BD002084F83C00204600F0A2
:101B40000DF8022084F83D002068211D00F060FCA3
:101B5000012084F83D00002010BD000008B5154AA2
:101B60000168154891420ED1016841F010010160F1
:101B700000680022114600F0100000903620FFF7A8
:101B8000DDF9362010E00D4A914211D1016841F093
:101B90002001016000680022114600F02000009042
:101BA0003720FFF7CBF93720BDE80840FFF7B8B979
:101BB00008BD000000100040403802400014004002
:101BC0000168094ACB6843F00103CB60016888686B
:101BD0001040062806D0B0F5803F03D0086840F0DA
:101BE000010008600020704707000100704770B5D1
:101BF0000446006800250169C943890715D4C168F6
:101C0000C943890711D4EA1E0261012121772068A6
:101C100080698007204602D0FFF7E8FF04E000F06B
:101C2000A7F8204600F0A5F8257720680169C94388
:101C3000490717D4C168C943490713D402216FF07B
:101C40000402026121772068806910F4407F2046F9
:101C500002D0FFF7CBFF04E000F08AF8204600F046
:101C600088F8257720680169C943090716D4C16837
:101C7000C943090712D404216FF0080202612177D9
:101C80002068C0698007204602D0FFF7AFFF04E05C
:101C900000F06EF8204600F06CF8257720680169A6
:101CA000C943C90617D4C168C943C90613D408215A
:101CB0006FF01002026121772068C06910F4407F44
:101CC000204602D0FFF792FF04E000F051F82046D2
:101CD00000F04FF8257720680169C943C90708D18A
:101CE000C168C943C90704D1891E0161204600F0BB
:101CF00041F820680169C943090609D4C168C9438C
:101D0000090605D46FF0800101612046FFF7B6FE99
:101D100020680169C943C90509D4C168C9430906D6
:101D200005D46FF4807101612046FFF7A6FE20689C
:101D30000169C943490609D4C168C943490605D4A4
:101D40006FF040010161204600F00AF92068016946
:101D5000C94389060BD4C168C943890607D46FF00B
:101D6000200101612046BDE87040FFF788BE70BDCC
:101D7000704770472DE9F04161492DED068B0068F1
:101D800088427DD1DFF87C8101154046FFF76AF873
:101D90005D4F5E4D3868401C9FED5D8B9FED5E9BF7
:101DA0009FED5FAB386095ED000AB8EE400B20EE7A
:101DB000080B80EE091B31EE4A0BB0EE001B00F061
:101DC000C7FD05F1300696ED001B30EE010B86EDE8
:101DD000000B95ED010AB8EE400B20EE080B80EEEB
:101DE000091B31EE4A0BB0EE001B00F0B1FD05F10E
:101DF000400494ED001B30EE010B84ED000B95EDDB
:101E0000010AB8EE400B20EE080B80EE091B31EE04
:101E10004A0BB0EE001B00F09BFD503595ED001B0A
:101E200030EE010B85ED000B386864282AD14FF4A1
:101E300000614046FFF716F89FED3B8B96ED001BC7
:101E400081EE080B01F000FA86ED020B94ED001B09
:101E500081EE080B01F0F8F984ED020B95ED001B03
:101E600081EE080B01F0F0F99FED311B85ED020BBF
:101E700086ED001B84ED001B002085ED001B00E0BB
:101E80003AE038609FED2C0B96ED022B9FED2C1B5A
:101E9000B4EEC02BF1EE10FA04D9B4EEC12BF1EE82
:101EA00010FA01DB284800E028480168491C01605D
:101EB00094ED022BB4EEC02BF1EE10FA06DDB4EE79
:101EC000C12BF1EE10FA01D2214800E0214801684F
:101ED000491C016095ED022BB4EEC02BF1EE10FA17
:101EE00006DDB4EEC12BF1EE10FA01D21A4800E083
:101EF0001A480168491C0160BDEC068BBDE8F08101
:101F000000140040000402400000002030000020C7
:101F10006666666666660A400000000000FEAF4026
:101F2000666666666666FA3F00000000000059407B
:101F3000000000000000000000000060B81EF13F3B
:101F4000000000E078E9F43F0800002004000020D1
:101F50000C000020180000201000002014000020B9
:101F6000704710B5040002D0606F10B107E0012087
:101F700010BD002084F87000204600F025F82420D1
:101F800060672068016821F001010160204600F0CF
:101F900035FB0128ECD0606A10B1204600F09EFAB3
:101FA0002068416821F4904141602068816821F0F7
:101FB0002A0181602068016841F00101016020462A
:101FC000BDE8104000F0EEBA10B586B0044614210A
:101FD0006846FEF765F91249206888421ED111480B
:101FE000016841F480210160006800F480200590C0
:101FF0000C481038016841F00801016000680221B6
:10200000002200F008000590032307244FF44070DD
:102010008DE81F0004486946FEF738FE06B010BD83
:102020000048004040380240000C0240FEE700003B
:102030002DE9FF412F4800242D4901250094062653
:10204000019402940394C0E90014056185618460E1
:10205000294980F82040C0E90A14C661C46080F8AC
:1020600030504561FEF789FB08B172B6FEE70427E0
:10207000009720486946CDE90154FEF7A7FA08B158
:1020800072B6FEE7022069460524CDE900401948F2
:10209000FEF79CFA08B172B6FEE703206946CDE967
:1020A00000601448FEF792FA08B172B6FEE7072006
:1020B0006946CDE900070F48FEF788FA08B172B605
:1020C000FEE708206946CDE900040A48FEF77EFADB
:1020D00008B172B6FEE709206946CDE90006054859
:1020E000FEF774FA002801D072B6FEE7BDE8FF8162
:1020F00000220140900000200100000F2DE9F04F68
:1021000087B014216846FEF7CBF85948016841F0C2
:1021100004010160016801F004010591016841F0CA
:1021200020010160016801F020010591016841F082
:1021300080010160016801F080010591016841F0B2
:1021400001010160016801F001010591016841F0A0
:1021500002010160016801F002010591016841F08E
:1021600008010160016801F008010591016841F072
:1021700040010160006844F6814ADFF8F8B00022AF
:1021800000F04000514605905846FEF771FE3A486F
:1021900000224021FEF76CFE00243849DFF8E09071
:1021A0004FF40058CDF80080CDE901146946484647
:1021B000FEF76CFD02256946322002AACDE9000532
:1021C000032648460B2782E8D000FEF75FFD8620F5
:1021D000694602AACDE900052A4882E8D000FEF748
:1021E00055FD4FF00109CDF800A0CDE901946946F5
:1021F00058460394FEF74AFD02AA6946584682E80B
:10220000D000CDE90085FEF741FD40210091CDE9E8
:102210000194194869460394FEF738FD8020694609
:10222000CDE9000414480294FEF730FD4FF4E85065
:1022300000900A206946CDE903601248CDE90154B7
:10224000FEF724FD28026946CDE900040D480294FA
:10225000FEF71CFD4FF42050694602AACDE90005A7
:10226000054882E8D000FEF711FD07B0BDE8F08F09
:1022700030380240000402400018024000001110F3
:1022800000080240000002403EB500240094019482
:102290000294FFF7C3F90E4A41000E48B1FBF2F178
:1022A0000D4B63220360C260491EC0E901148461C2
:1022B000FFF738FC08B172B6FEE70648694600949D
:1022C0000294FFF7DDFB002801D072B6FEE73EBDA9
:1022D00040420F0018010020001400400C4800216B
:1022E00010B50A4C0C224FF4E1330460C0E901310F
:1022F000C160C0E904128161C16101624162FFF7FE
:1023000030FE002801D072B6FEE710BD0048004044
:1023100058010020FEE7FEE770477047FEF7B4BDA6
:1023200070B5B8B0342124A8FDF7BAFF142131A844
:10233000FDF7B6FF90216846FDF7B2FFFEF730FECD
:102340002448016841F080510160006800F080502D
:1023500036902148016821F4404141F480410160F8
:10236000006802240DF1B00C00F440403690600586
:1023700004219022CDE92A4009232F934FF4A0266F
:102380008CE816000125CDE9245624A8FFF796F91C
:1023900008B172B6FEE74FF480524FF4A051002509
:1023A000CDE9341231AA0F20042182E8310031A88E
:1023B000FFF79CF808B172B6FEE74FF480701395F2
:1023C00000906846FEF7F4FD002801D072B6FEE7E3
:1023D00038B070BD403802400070004005484FF0F2
:1023E00000610368034A43F470030360803A11609C
:1023F0007047000088ED00E00148FFF7F8BB0000DF
:10240000D80000200148FFF7F2BB000018010020AF
:10241000F0B5274B4FF0804E264D02689842264E6D
:10242000264F274C09D0704507D0A84205D0B042AE
:1024300003D0B84201D0A04205D1D1F804C022F0A7
:1024400070024CEA020298421BD0704519D0A84293
:1024500017D0B04215D0B84213D0A04211D0194DB8
:10246000A8420ED0184DA8420BD0184DA84208D053
:10247000174DA84205D0174DA84202D0164DA842CC
:1024800003D1CD6822F440722A434D6922F08002C4
:102490002A43026098428A68C2620A68826201D056
:1024A000A04201D10969016301214161F0BD000031
:1024B000000001400004004000080040000C004003
:1024C0000004014000400140004401400048014038
:1024D00000180040001C00400020004090F824102C
:1024E000C90706D00168836A4A6822F400321A4399
:1024F0004A6090F82410890706D50168C36A4A68C3
:1025000022F480321A434A6090F82410490706D515
:102510000168036B4A6822F480221A434A6090F8EB
:102520002410090706D50168436B4A6822F400426B
:102530001A434A6090F82410C90606D50168836BD7
:102540008A6822F480521A438A6090F8241089061F
:1025500006D50168C36B8A6822F400521A438A6068
:1025600090F82410490611D50168036C4A6822F4DA
:1025700080121A434A60016CB1F5801F06D10168D0
:10258000436C4A6822F4C0021A434A6090F824104F
:10259000090606D50168826C486820F400201043C3
:1025A00048607047F8B500260446C667FEF766FC2B
:1025B000054620686FF07E470068000708D50022B6
:1025C0002B464FF400112046009700F045F960B902
:1025D0002068006840070AD500222B464FF480018E
:1025E0002046009700F038F908B10320F8BD2020FC
:1025F000606784F87060A0670020F8BD2DE9F041A5
:1026000004468068DFF820C2884F2368D4E904526A
:10261000E16928431E6800250A438549104306EAFC
:102620000C0606431E604FF400422068E6684368CB
:1026300023F44053334343602368A669206AD3F8E8
:1026400008C030432CF4306606439E602068B842D0
:102650000AD1086810F0030052D001287BD002286C
:102660007AD003286ED186E0724B98420AD108686E
:1026700010F00C0079D004287BD0082877D00C28E3
:1026800060D178E06C4B98420AD1086810F03000B5
:102690006BD010286DD0202869D0302852D16AE044
:1026A000664B98420AD1086810F0C0005DD04028FF
:1026B0005FD080285BD0C02844D15CE0604B98425A
:1026C0000DD1086810F440704FD0B0F5807F50D025
:1026D000B0F5007F4BD0B0F5407F33D14BE0594B84
:1026E00098420FD1086810F4406009D0B0F5806FAF
:1026F0003FD0B0F5006F3AD0B0F5406F22D13AE04C
:10270000012120E0504B98420DD1086810F4405050
:102710002BD0B0F5805F2CD0B0F5005F27D0B0F59E
:10272000405F0FD127E0494B98420BD1086810F465
:1027300040401AD0B0F5804F1BD0904217D0B0F572
:10274000404F18D01021E0694FF6EF7690423AD111
:10275000092961D202E00CE009E006E0DFE801F0BF
:102760000D10255C285C5C5C2B000021EBE702214E
:10277000E9E70421E7E70821E5E7FEF74FFF01E07D
:10278000FEF75CFF6168400000EB5100B0FBF1F028
:1027900080B2A0F11001B1423ED84FF6F07321682B
:1027A000C0F342021840104326E02949606805E062
:1027B000FEF754FFE6E760684FF4803101EB50010B
:1027C000B1FBF0F0E4E7092926D2DFE801F00508C3
:1027D00017251C2525251F00FEF720FF01E0FEF729
:1027E0002DFF616800EB5100B0FBF1F080B2A0F169
:1027F0001001B14210D82168C8600EE06068154928
:1028000001EB500105E0FEF729FFEAE7606802EB03
:102810005001B1FBF0F0E9E7012500202066606679
:102820002846BDE8F0810000F369FFEF0010014089
:10283000903802400044004000480040004C0040F6
:10284000005000400014014000780040007C00402F
:102850000048E8010024F4002DE9F0479A461746A5
:102860000E460446089D4FF000094FF0200839E05D
:10287000681C37D0FEF702FBA0EB0A00A84222D862
:102880000DB32068016849072CD5C069C043000515
:1028900028D423684FF40061196221680B6823F47F
:1028A000D0730B6021688B6823F001038B60C4F840
:1028B0007480C4F87880C4F87C8000BF032084F85A
:1028C0007090BDE8F08721680B6823F4D0730B602B
:1028D00021688B6823F001038B60C4F87480C4F80E
:1028E0007880EBE72068C06936EA000004D0002059
:1028F000B842BDD00020E4E70120F9E7FEE703B4C9
:1029000001984100009850EAC12018BF04204A0DE8
:1029100018BF40F0010040F2FF72B2EB515F08BFF8
:1029200040F00200012808BF052002B070470907E7
:1029300000284FEA116104DB00F1E02080F8001468
:10294000704700F00F0000F1E02080F8141D704780
:102950002DE9F04D2DED040B2DED0A8B9AB0DDE93C
:102960002550279CDDF890A025F0004624F0004873
:10297000BAF1000F14BF0121002101EB4502F84913
:1029800053184A1093422AD3002814BF012300236E
:1029900003EB44030B44F3498B4220D358EA000174
:1029A0009FEDF19B72D0DFF8C8B35D4503D1BAF15A
:1029B000000F05D184E0BAF1000F08BF002100D05C
:1029C000012101EB450111F5001F08D8002814BFB3
:1029D0000121002101EB440111F5001F0BD99DEDF0
:1029E000261B9DED240B1AB0BDEC0A8B04B0BDE88C
:1029F000F04D00F0A5BC0027002DBCBFDD49884587
:102A000021DADD498845A8BF02271CDAC3451ADC54
:102A1000DA4901EB2851142908DDC1F1340220FA0A
:102A200002F101FA02F282420DD108E058B9C1F177
:102A3000140228FA02F101FA02F2424503D101F030
:102A40000101C1F1020756EA0A0120D1002C1EDA69
:102A5000002D18BF022F01D0012F0AD0022000F054
:102A6000A7FC1AB0BDEC0A8B04B0BDE8F04D00F035
:102A700057BC022000F09CFC00F052FCB1EE400B71
:102A80001AB0BDEC0A8B04B0BDE8F08D18E09FEDE4
:102A9000BCAB9FEDBD8B00287DD1B64880451CD1D5
:102AA00005F1804010F5801008BFBAF1000F07D083
:102AB000B34508DC002CA8BF9DED260BE0DA07E04B
:102AC000B0EE490BDCE7002CB8BF9DED260BD5DB43
:102AD000AF48784490ED000BD2E7D84548D1002CA0
:102AE00043DA2EB186423AD1BAF1000F3DD126E049
:102AF000BAF1000F13D0022000F05AFC00F030FCB5
:102B00008DED020B9DED240B8DED000B10EE900A68
:102B1000039961F31E0003909DED020BB0E78DED6C
:102B200002AB9DED240B1AEE901A10EE900A8DED7B
:102B3000000B61F31E0003909DED020BA0E78DEDED
:102B4000028B9DED240B18EE901A10EE900A8DED7D
:102B5000000B61F31E0003909DED020B90E704DA79
:102B60009DED241B89EE010B8AE79DED240B87E781
:102B700086421ADAB4F1804F04BF9DED240B20EE9B
:102B8000000B3FF47DAFA4F10050B0F1FF500CD129
:102B9000002D0ADB00E008E09DED240B51EC100B4A
:102BA00000F064FC41EC100B6AE79DED240B51EC46
:102BB000100B00F003FCBAF1000FCDE90E0140D17B
:102BC0009FED750B46B3A6F1E040B0F17F600ED0EB
:102BD0005E4536D1002D00DA97B3022F0CBF0120DD
:102BE0004FF0FF3000EE100AB8EEC00B48E7002DA2
:102BF00001DD002C0DDA002D01DD002C1DDB002D88
:102C000014DA002C12DB012F08BF9FED650B3FF497
:102C100037AFB0EE4A0B33E7022F18BF002D0CD0B0
:102C2000012F0AD1002DFFF62BAF06E0002DB8BF13
:102C3000002C06DA012F3FF423AFB0EE480B1FE75C
:102C400019E0012000EBE57050EA070113D0791E6E
:102C5000B0EE498B084308BF9FED538B54480025C5
:102C600080457ADD53495448884514DDB0420DDB78
:102C7000002C19DB2CE0012000F09AFB1AB0BDEC0F
:102C80000A8B04B0BDE8F04D00F05EBBB34502DC3A
:102C9000002C09DC1CE0864202DA002C18DA03E082
:102CA0005E4528DD002C13DD022000F081FB00F0E2
:102CB00057FB8DED020B28EE0A0B8DED000B10EE8D
:102CC000900A039961F31E0003909DED020BD7E675
:102CD000022000F06DFB00F04FFB10EE901A18EE92
:102CE000900A8DED020B8DED008B61F31E000390B9
:102CF0009DED020BC4E69DED0E0B9FED313B30EEDA
:102D0000490B8DED040B20EE002B9DED041B9FED78
:102D10002E0B01EE430B9DED043B9FED2D1B03EEAF
:102D2000401B9DED040B9FED2E3B22EE012B9FEDF2
:102D30002A1B20EE011B20EE030B9FED2B3B02EE26
:102D4000430B31EE002B8DED022B02959DED022BF6
:102D500032EE411B30EE411B21E149E00000000052
:102D6000FFFF1F00FFFF0F00000000000000F03F0A
:102D70000000F03F0000F07F0000404301FCFFFF37
:102D8000000000000000F07F0000000000000000D4
:102D9000DA0A0000000000000000000000000080CF
:102DA000000000000000F0FF000000000000F0BF85
:102DB0000000E0410000F043FFFFEF3F0000000093
:102DC000000000000000D03F555555555555D53FE2
:102DD000000000000000E03F000000604715F73FE2
:102DE00044DF5DF80BAE543EFE822B654715F73F7E
:102DF0000020B6F5801F0BDA9DED0E0B9FEDEC1B4E
:102E00006FF0340020EE010B10EE906A8DED0E0B8A
:102E1000E94A00EB2650C6F31301A0F2FF3741F058
:102E20007F6040F040509142D8BF002408DDE34A63
:102E30008A42C8BF012403DC0024A0F580107F1C57
:102E4000DF49794401EBC4010F9091ED001B9DED2A
:102E50000E2B9DED0E0BDB4931EE023B30EE410BAC
:102E600089EE032B20EE02AB8DED02AB7944029587
:102E700091ED003B4FF0005141EA600000EB8440CF
:102E80008DED043B00F5002005909DED043B9DED8C
:102E9000044B2AEE0ACB33EE411B9DED0E3BCA4894
:102EA000062133EE411B9DED023B03EE440B03EE86
:102EB000410B20EE02BBB0EE4C0B784400F0F7F96A
:102EC0002CEE0C1B20EE010B9DED021B31EE0A1BBC
:102ED0000BEE010B9DED021B21EE011B9FEDBC2BA8
:102EE00031EE023B33EE003B8DED043B04959DED4E
:102EF000043B33EE422B32EE411B30EE412B9DED75
:102F0000020B9DED041B20EE011B9DED040B2BEE2F
:102F1000000B02EE0A0B31EE002B8DED022B029519
:102F20009DED022B32EE411B30EE410B9DED021B5D
:102F30009FEDA92B21EE021B9DED022B9FEDA83BDF
:102F400022EE032B9FEDA83BA94800EE032B78440B
:102F500000EBC40090ED000BA64832EE000B02EE31
:102F6000107AB8EEC22B8DED042B31EE003B784485
:102F700000EBC4009DED044B90ED002B33EE023BC3
:102F800033EE043B8DED023B02959DED023B33EEAB
:102F9000443B33EE422B32EE411B30EE411B9DEDA4
:102FA000260B954A8DED000B00959DED260B9DEDB2
:102FB000002B30EE420B9DED022B20EE020B9DED1F
:102FC000262B02EE010B9DED001B9DED022B21EE49
:102FD000021B8DED021B30EE011B11EE900A11EE6B
:102FE000101A8DED001B904224DB821A11430ED182
:102FF0009FED831B9DED002B9DED023B30EE011BF1
:1030000032EE432BB4EEC21BF1EE10FA26DD0220A5
:1030100000F0CEF900F0A4F910EE901A18EE900A24
:103020008DED020B8DED008B61F31E0003909DED85
:10303000020B25E5744B20F000429A420ED3734AEE
:10304000024411437FF444AE9DED022B31EE421B4E
:10305000B4EEC01BF1EE10FABFF63AAE20F000411C
:103060006B4A6C4B002402EB21529942D8BF9DED74
:10307000021B27DD511C4FF4801222FA01F101449A
:10308000654BC1F30A527B44A2F2FF3293ED001B61
:10309000624B8DED041BD34021EA0303C1F31301FE
:1030A00041F48011C2F1140221FA02F405930028C0
:1030B000B8BF64429DED021B9DED042B31EE421B17
:1030C0008DED021B30EE011B8DED041B04959DED73
:1030D000041B9FED532B9DED023B21EE021B9DED4A
:1030E000042B32EE432B30EE420B9FED4F2B20EEA4
:1030F000020B9DED042B9FED4E3B4F48052102EE48
:10310000030B31EE002B8DED002B32EE411B30EE28
:1031100041AB9DED000B20EE000B8DED040B7844D0
:1031200000F0C5F89DED001B9DED042B02EE401B49
:103130008DED021B9DED000B20EE010B9FED402B52
:1031400031EE422B80EE021B9DED002BB0EE4A0BC0
:1031500002EE0A0B31EE400B9DED001B30EE410BF1
:1031600039EE400B10EE900A8DED000B00EB045091
:1031700001150029C8BF019013DC224651EC100B49
:10318000FDF7B8F8FFF7BBFB042808BF00F0F4F820
:1031900022469DED000B51EC100BFDF7ABF8CDE98D
:1031A00000019DED000B28EE000B69E4000000001B
:1031B00000000000000040438E9803007AB60B0028
:1031C000E2060000400700009A0600000000000030
:1031D0000000000000000840000000E009C7EE3FCA
:1031E000F5015B14E02F3EBEFD033ADC09C7EE3F5C
:1031F000F6050000C6050000000090400000000039
:10320000FE822B654715973C00CC904000346F3F01
:1032100001FCFFFF0000E03F26050000FFFF0F005C
:1032200000000000432EE63FEF39FAFE422EE63F53
:10323000396CA80C615C20BE660400000000000030
:10324000000000000000004000B52DED028BB1EE43
:10325000C08B83B018EE100A18EE901A8DED008B1B
:10326000002818BF0120084320F00040C0F17F6013
:1032700000F1E040C00F14D010EE101A10EE900ACA
:103280008DED000B002918BF0121084320F00040FC
:10329000C0F17F6000F1E040C00F04BF012000F0EA
:1032A00087F8B0EE480B03B0BDEC028B00BD491EA1
:1032B00000EBC102B0EE401B92ED000B31F00602B4
:1032C0000DD0491E00EBC102B0EE403B92ED002B49
:1032D00031F00602B0EE420B03EE010BF1D10229F0
:1032E00014D004290AD0062918BF704790ED0A2B84
:1032F00000EE012B90ED080B02EE010B90ED062B7A
:1033000000EE012B90ED040B02EE010B90ED022B71
:1033100000EE012B90ED000B02EE010B7047000058
:103320009FED031B9FED042B81EE020B7047000005
:10333000000000000000F03F00000000000000005E
:1033400030EE010B704700009FED031B81EE010B77
:1033500070470000000000000000000000000000B6
:103360009FED030B20EE000B7047000000000000F3
:1033700000000000000000709FED030B20EE000B2A
:103380007047000000000000000000000000001076
:1033900002E008C8121F08C1002AFAD1704770471E
:1033A000002001E001C1121F002AFBD1704700007C
:1033B00001490860704700002C00002082B0CDE970
:1033C000000121F0004001909DED000B02B051EC96
:1033D000100B70470EB5FDF75FFDFEF7A1FFFEF77E
:1033E0008DFE1E48016841F48001016000680022E2
:1033F000114600F4800000903820FDF79FFD382032
:10340000FDF78EFDFEF714FEFEF768FF1548002459
:10341000134B4FF6FF710094802201940294C0E98F
:1034200000348261C0E90241FEF77CFB08B172B64C
:10343000FEE7202000900B4869460294FEF720FB2F
:1034400008B172B6FEE7FEF71FFF06480C220649D8
:103450004838FDF70BFA00F03FF8FEE7303802403D
:1034600000100040D80000203000002000B541ECE2
:10347000100B2DED028B83B0B1EEC08B18EE100A4D
:1034800018EE901A8DED008B002818BF012008431C
:1034900020F00040C0F17F6000F1E040C00F14D088
:1034A00010EE101A10EE900A8DED000B002918BFD7
:1034B0000121084320F00040C0F17F6000F1E040AE
:1034C000C00F04BF0120FFF773FF51EC180B03B0CE
:1034D000BDEC028B00BD000008489FED060B80ED9F
:1034E000000B103080ED000B103080ED000B044815
:1034F000FEF766BB00000000000000006000002036
:10350000180100200006101600061016000000002A
:103510000000000001020304060708090000000083
:103520000102030400000000000000000000F03F62
:10353000000000000000F83F000000000000000054
:103540000000004003B8E23F00000000000000005F
:1035500006D0CF43EBFD4C3E033333333333E33FED
:10356000FFAB6FDBB66DDB3F4D268F515555D53F19
:1035700001411DA96074D13F65DBC9934A86CD3FE7
:10358000EF4E454A287ECA3F3E5555555555C53FD5
:1035900093BDBE166CC166BF2CDE25AF6A56113FC7
:1035A000F16BD2C541BDBBBED0A4BE726937663EC9
:1035B0000000000000000000D835000800000020D6
:1035C000300000009033000808360008300000206A
:1035D00008060000A0330008000000000000000002
:1035E00000000000000000000000000000000000DB
:1035F00000000000010000001000000000000000BA
:083600000024F40000000000AA
:04000005080001F9F5
:00000001FF
